:4000000000800020110000004D0D00004D0D000008B5044B1A6803F53F5302331A6000F0B5FE00BFFA46004010B5054C237833B9044B13B10448AFF300800123237010BD10
:400040004881FF1F0000000024530000084B10B51BB108490848AFF300800848036803B910BD074B002BFBD0BDE81040184700BF000000004C81FF1F24530000C880FF1F14
:400080000000000010B582B000F002F962B600F053FF3F4800F06AFF3E4800F067FF00F02DFB00F031FB00F001F900F07DF900230193009300F0ACF901F0EEFB364801F09C
:4000C00091FB4FF47A7000F0BDFE012001F098FB02F04AF9314B187002F07EF9304B187050B100F001FB4FF4FA7000F0ABFE00F05BF901222B4B1A70284B1B7893B1294BFA
:400100001B7813B1012B06D00CE00122254B1A7000F046FC06E0234C0023237000F04EFC012363701F4B1B7813B1012B09D0CFE7694601A800F070FA00F0A6FB00F0DCFB69
:40014000C6E7184B5B7823B100F02EF90022154B5A7000F063F90128BAD1694601A800F05BFA01A800F0E0FA684600F039FB0D4A536801335360B3F5FA7FA9D100F05AFAAB
:40018000694601A800F0EEFB0022064B5A609FE72853000030530000385300004292FF1F4392FF1F6481FF1F10B50446044B186804F086FA034904F08FFB206010BD00BFC2
:4001C0006C81FF1F00007A4408B50C4B5B68012B0ED10A4A136801331360138901339BB21381142B04D100F097FA0022034B1A810122024B9A7201F0B9F908BD6C81FF1F9E
:4002000010B582B002A93B2301F8043D00230122682001F08FF801F05BF910F0020FFAD001F084F9164C00230E2204F10C01682001F0E6F8227B637B43EA0223A384A27B91
:40024000E37B43EA0223E384227C637C43EA02232385A27CE37C43EA02232386227D637D43EA02236385A27DE37D43EA0223A385227E637E43EA0223E38502B010BD00BF4D
:400280006C81FF1F0022014B1A6070476C81FF1F08B5044801F0DEF901F0AEF9024800F065FE08BDC90100004453000070B584B0344800F05BFE00F0C1FE334800F056FED1
:4002C000324800F053FE324800F050FE6B238DF80C3000238DF80D30022203A9682001F029F801F0F5F810F0020FFAD0522000F031FE01F009F900F02DFE01F0E9F800F0D3
:4003000029FE244800F032FE1C238DF8083000248DF809402346022202A9682001F00AF81D4E304600F022FE01F0EEF800F012FE01F0CEF800F00EFE184D284600F016FE17
:40034000174800F013FE1B238DF804308DF805402346022201A9682000F0ECFF304600F005FE01F0D1F800F0F5FD01F0B1F800F0F1FD284600F0FAFD0A4800F0F7FD04B006
:4003800070BD00BF5C5300008053000090530000B4530000E0530000185400001C540000245400005854000008B5154B00229A84DA841A855A859A85DA8500229A63DA639F
:4003C0001A645A649A64DA645A659A65DA650D4ADA6642F222721A670B4A5A6740F2B1129A6740F26512DA6740F26A62C3F88020012283F88420054800F0B8FD08BD00BFA1
:400400006C81FF1F01D5FFFF1680FFFF705400000122014B5A6070476C81FF1F014B987A704700BF6C81FF1F2DE9F843784C0023A372FFF7E5FEE06EA38C181A00B2A08410
:40044000236FB4F82680C3EB08080FFA88F8A4F82680676F238DDF1B3FB22785A66F638D9E1B36B26685E56FA38D5D1B2DB2A58504F02AF94FF0625104F07AF9A063404663
:4004800004F022F94FF0625104F072F98046E063384604F019F94FF0625104F069F907462064304604F010F95A4904F015FA6064284604F009F9574904F00EFAA0643846D7
:4004C00003F0ACFC06460F46404603F0A7FC32463B4601F099FF48A3D3E9002303F0F2FC03F0E8FFA06300F100454FF000084FF08049E06B03F092FC42464B4601F086FFBA
:4005000006460F46206C03F089FC42464B4601F07DFF8046894642464B463046394603F01FFB02F00BF906460F46284603F076FC32463B4601F068FF2FA3D3E9002303F081
:40054000C1FC03F0B7FFE06304F18800FFF72CFEFFF798FE666DD4F888502946606C04F007F90146304603F0FBFF06466065A76DA16C284604F0FCF80146384603F0F0FF2A
:400580000546A065304603F049FC1DA3D3E9002303F098FC06460F46A06B03F03FFC1AA3D3E9002303F08EFC02460B463046394603F0D6FA03F07EFF2066284603F02EFC52
:4005C0000FA3D3E9002303F07DFC06460F46E06B03F024FC0CA3D3E9002303F073FC02460B463046394603F0BBFA03F063FF6066BDE8F883AFF30080B694631ADCA54C40A8
:400600005C8FC2F5285CEF3F7B14AE47E17A943F6C81FF1F0000034338B505460C46FFF703FF034B1A6E2A605B6E236038BD00BF6C81FF1F2DE9F041DFF8A880D8F86060A0
:40064000304603F0EBFB0022204B03F03BFC00221F4B03F085FA03F00DFF1E4CA4FB00235B09642707FB1305304604F0D1F91A4E2B4602461949304604F030FA304600F091
:4006800075FCD8F86450284603F0C8FB00220F4B03F018FC00220E4B03F062FA03F0EAFEA4FB00235B0907FB1304284604F0B0F9234602460A49304604F010FA304600F0D1
:4006C00055FC0A2000F046FCBDE8F081000059400000E03F1F85EB514492FF1FCC540000E85400006C81FF1F08B540F6D86001F0D1FD40F2E97001F0D3FD08BD08B501F09B
:4007000025FEFFF7F1FF08BD08B501F00BFC01F01DFC01F0CFF808BD024B01221A705A70704700BFF881FF1F294B1B78012B41D110B50468204604F06BF90028B8BF404289
:40074000002836DD204603F069FB0022214B03F007FA19A3D3E9002303F0B4FB03F062FE1B4C606003F048FB00221B4B03F0F6F913A3D3E9002303F0A5FB13A3D3E90023EB
:4007800003F0EEF903F04EFEA06041F27073984202DD1A46A26006E0B0F5966F03DA4FF496620B4B9A600A4C208901F073FD0023237010BD704700BF9A99999999991740B0
:4007C00005A3923A018D12400000000000B0AD40F881FF1F008056400098804000000000274B5B78012B3ED110B50468204604F00FF90028B8BF4042002833DD21492046C7
:4008000003F0AEFE03F00AFB17A3D3E9002303F059FB03F007FE1A4C6060A0F2272003F0EBFA13A3D3E9002303F04CFB12A3D3E9002303F095F903F0F5FDE06040F62233DE
:40084000984202DD1A46E26006E0B0F5966F03DA4FF496620A4BDA60094CA08901F020FD0023637010BD7047E9482EFF217D1840FD87F4DBD781F93F0000000000A49F4026
:40088000F881FF1F0000B44210B5002001F022F801F0ACFB164C6060A0F2132003F0ACFA0FA3D3E9002303F00DFB0FA3D3E9002303F056F903F0B6FDA06041F270739842AE
:4008C00002DD1A46A26006E0B0F5966F03DA4FF49662074B9A60064B188901F0DBFC10BD05A3923A018D12400000000000B0AD40F881FF1F0000000010B5012000F0EAFFF5
:4009000001F074FB164C6060A0F2272003F074FA0FA3D3E9002303F0D5FA0FA3D3E9002303F01EF903F07EFDE06040F62233984202DD1A46E26006E0B0F5966F03DA4FF4C9
:400940009662074BDA60064B988901F0A9FC10BDFD87F4DBD781F93F0000000000A49F40F881FF1F38B504460D46012000F048FF2468286804F04CF80546204604F048F806
:40098000054C2B4602460549204604F0A7F8204600F028FF38BD00BFB491FF1F0455000008B5012001F0E8FC012001F0F1FC012001F0FAFC012001F003FD08BD08B500208B
:4009C00001F0DAFC002001F0E3FC002001F0ECFC002001F0F5FC08BDFEE700BFF0B40022174611E050F82760F3B226F0FF0608E001EB420511F812406D78A5550132013B75
:400A0000DBB2002BF4D101371B2FEBD9F0BC70470C4B1B78DBB203F007010B4A11701B09013213702022094B1A70022203F683031A700422D8331A704422A3F2E2231A70DC
:400A4000704700BFCF0100496E580040FD51004008B50A46002104F038F808BD08B504F029F808BD70B50024334B1C80502202331A70032602331E801823304A13700921B3
:400A800002321180023213701925023215800232137004222A492B48FFF7E0FF02222A4B1A7008224FF040231A7003F500731E70264B1B78DBB226490B70264B1A8041F2F0
:400AC0005122023B1A800CE0234B1B7803F0010343EA440404F003044FF4F07001F084FC013D0DB1032CEFD115B90320FFF774FF1A4B4FF480721A8007221A700022184995
:400B00000A704820023108701A700222033B1A7004220A331A70134A137843F00F031370013A137843F001031370013A137843F08003137070BD00BF8040004086400040A4
:400B40009C050048004100400043004008010049A146004022420040254200400440004006400040A2430040012814D810B44000C0B2094B53F820101A18147C0A78224392
:400B80000A700130C0B253F820201844017C13780B43137010BC70470C550000012816D810B44000C0B20A4B53F820101A18147C0A7822EA04020A700130C0B253F8202019
:400BC0001844017C137823EA0103137010BC70470C550000012808D8044B03EB800252691844017F13780B43137070470C550000012809D8054B03EB800252691844017FE5
:400C0000137823EA01031370704700BF0C55000038B572B6394A137843F00403137000240BE0374863001A19510001440A46898C106AFFF70DFF0134E4B2082CF1D9002456
:400C40000BE02F49A3001819420088188022C16D806DFFF703FF0134E4B2002CF1D029494FF09040FFF7BAFE0A25274B1D70274A137843F0020313701032137843F00203D5
:400C80001370234C237843F040032370A2F58632513A137843F01003137008221D491E48FFF7DCFE2A461D491D48FFF7D7FE2A461C491D48FFF7D2FE08221C491C48FFF7BB
:400CC000CDFE08221B491C48FFF7C8FE1B4A137843F0080313701A4D61232B70FFF7C2FE81232B700122174B1A70FFF791FE0E2221461548FFF7B2FE38BD00BFE8460040FF
:400D00000C550000700000488358004003500140A04300406C0500480251004074050048C051004080050048F05100408C0500481251004094050048225100402243004067
:400D40000048004004000840B043004008B503F085FE03680C2B00D1FEE7FEE708B5094B1A681044084BC31A802B02DC054B186005E003F073FE0C2303604FF0FF321046F3
:400D800008BD00BFCC80FF1FE092FF1F08B5104E104D16E029686B68AC68002204E051F8040B43F8040B0432A242F8D1E868002203E0002143F8041B04328242F9D110356B
:400DC000013E002EE6D103F04FFEFFF75BF9FEE7010000002C56000008B5104A104B1A60104A136843F40073136000230AE0032B03D80D4A52F8231000E00C490C4A42F850
:400E0000231001332F2BF2D90A4B1A780A4B1A70074A0A4B1A60FFF7FBFE08BD0004FA050CED00E014ED00E0000000004D0D00000080FF1FBC760040C080FF1F08ED00E032
:400E400001BE704710B5044605E0084B186801F0CBFAA4F50044B4F5004FF6D8034B586800FB04F001F0C0FA10BD00BFD080FF1F08B5034B1B7A00FB03F001F0B5FA08BD47
:400E8000D080FF1F70B504460E46074B1D681F2802D90020FFF7D4FF04F01F04103455F8240045F8246070BD08ED00E038B504460D46072902D90020FFF7C2FF1F2C02D9FE
:400EC0000020FFF7BDFF04F01F0000F1604000F564406D01EDB2057038BD00BF7222074B1A70202201331A7006225F3B1A70472210331A700022B03B1A7070478565004043
:400F000010B501F079FA04460A4A137843F0200313700132137843F010031370FF3A137843F01003137000F033F8204601F068FA10BD00BF9565004008B5054B1B7823B95C
:400F4000FFF7CCFF0122024B1A70FFF7D9FF08BDE691FF1F034B1B7813F0040FFAD1024B18707047676400404764004038B5074B1B782BB938BDFFF7EDFF0134A4B201E051
:400F800005460024285D0028F5D138BDE691FF1F054A137843F0080313701032137843F008031370704700BFA243004010B50223114A137081210E3A1170082102321170F0
:400FC0001132137000240D4B1C704FF400420C4B1A6007210F20FFF769FF0A490F20FFF751FF1022084B1A70084B1C70084B1C70084B1C7010BD00BFD6490040DC49004054
:4010000080E100E065100000C492FF1FD192FF1FC892FF1FCB92FF1F08B501F0EDF9064A137843F0040313701032137843F00403137001F0E5F908BDA543004008B5074B91
:401040001B7823B9FFF7B2FF0122044B1A70FFF7E3FF4FF40042024B1A6008BDE891FF1F00E100E038B5A54B1C78A54B1B7813F0400F00F03A81E4B214F0010F00F01D81F4
:401080009F4B1B78453B052B00F21481DFE813F006008200120112010600DF0004F0DF0504F00A04082C42D1954B1B78DBB2452B35D1944B1B7813F0FF0F10D0924B1B68C5
:4010C0001B78DBB2914A137004228C4B1A7001228F4B1A7046228A4B1A702C46EDE08D4B1B7813F0020F0DD08B4A137843F00A0313706022824B1A704FF40042874B1A6035
:401100002C46DAE0864A137843F0100313701022844B1A700422023B1A702C46CDE00022764B1A704A22764B1A702C46C5E00A2C2BD1794A137843F0A0031370754B1B7861
:4011400013F0020F14D06E4B1B7813F0080F01D0092300E00A23704A11780B4313706022674B1A704FF400426C4B1A602C46A4E06B4A137843F0100313701022694B1A7010
:401180000422023B1A702C4697E00020FFF758FE2C4692E014F0020F36D15D4B1A78D2B2584B1B78DBB29A4210D2594A1378DBB255490968CB5CDBB254490B7004214F4B59
:4011C000197013780133DBB2137076E0514B1B7813F0020F0CD0504A137843F00A0313706022474B1A704FF400424C4B1A6064E04B4A137843F0100313701022494B1A7089
:401200000422023B1A7058E0424B1B7813F0020F0CD0414A137843F09A0313706022384B1A704FF400423D4B1A6046E03C4A137843F01003137010223A4B1A700422023B56
:401240001A70354A137843F09003137035E0364A1378DBB2354908682C490978C9B2C15413780133DBB213701278D2B2304B1B78DBB29A4203D21022204B1A701DE0254BB3
:401280001B7813F0020F0CD0234A137843F00903137060221A4B1A704FF400421F4B1A600BE01F4A137843F0100313700022134B1A7002E00020FFF7C3FD14F0200F1CD08E
:4012C0000F4B1B7813F0080F01D0012300E00223114A11780B431370114A137803F0EF0313701022064B1A7038BD054B1B7813F0100F02D11022024B1A7038BDD7490040B2
:40130000C492FF1FC992FF1FCC92FF1FD8490040CB92FF1FCA92FF1FD192FF1F80E100E0D6490040D9490040C892FF1FD492FF1FD092FF1F002948D070B40C462649097848
:40134000C9B2102906D12549097811F0080F11D1002112E020490978C9B260290CD14FF400451F490D601F4D297801F0F7012970002102E0012100E0022149BB4526164D35
:401380002E700026184D2E70184D2A70184A1460184A1370134C227802F0FD0222704200D2B21548027013F0010F06D012220B4B1A700422023B1A7002E00122074B1A70D0
:4013C0004FF400420D4B1A6002E0022108467047084670BC704700BFC492FF1FD949004080E200E0D192FF1FCB92FF1FC992FF1FCC92FF1FCA92FF1FD849004000E100E0F7
:4014000000294AD070B40C4627490978C9B2102906D12649097811F0080F11D1002112E021490978C9B260290CD14FF4004520490D60204D297801F0F7012970002102E0BD
:40144000012100E0022159BB4926174D2E700026194D2E70194D2A70194A1460194A1370144C227802F0FE0222704200D2B242F001021548027013F0010F06D012220B4B20
:401480001A700422023B1A7002E00122074B1A704FF400420D4B1A6002E0022108467047084670BC704700BFC492FF1FD949004080E200E0D192FF1FC892FF1FD092FF1FF2
:4014C000D492FF1FCA92FF1FD849004000E100E04FF40042084B1A60084B1878C0B2084B1B7813F0400F01D040F004004FF40042044B1A60704700BF80E100E0D192FF1F62
:40150000C492FF1F00E100E04FF40043044A1360044A107800211170034A1360704700BF80E100E0D192FF1F00E100E0014B1878704700BFCB92FF1F084A137843F001031D
:4015400013701032137843F00103137002F64D32137843F001031370704700BFA3430040014B1870704700BF034F0040014B1878704700BF034F0040014B1880704700BFEF
:40158000044F0040014B1880704700BF064F004008B5164A137803F0010313700232137803F0FC031370124B1A7802F0CF021A701A7842F030021A701A7802F0F0021A7097
:4015C0001A7842F00F021A700A4A137843F00103137045F6BF50FFF7CFFF45F6BF50FFF7D1FF0C20FFF7BCFF08BD00BF004F00400B4F0040014F004008B5054B1B7823B93F
:40160000FFF7C6FF0122024B1A70FFF795FF08BDE991FF1F024B1B68C3F88400704700BF08ED00E04001C0B2014B1870704700BF11E400E04FF40032014B1A60704700BF31
:4016400000E100E04FF40032014B1A60704700BF80E100E010B50446FFF7F4FF2046FFF7D9FF0720FFF7DEFFFFF7E4FF10BD00BF10B50B4C237803F09F032370237803F0BF
:40168000F00323702378184340F0100020700120FFF7EEFB237803F0EF03237010BD00BF2051004038B505460E4C237843F020032370237803F0BF0323700020FFF7D8FBAC
:4016C000237803F0F003237023781D4345F0100525700120FFF7CCFB237803F0EF03237038BD00BF2051004070B5354B1A7802F08002D2B21A7033490A7802F0F00242F0D9
:401700000F020A7001310A7802F0F0020A7001310A7802F0F0020A701A7802F0DF021A701A7842F040021A704FF4CA760020FFF79FFB234D2B7843F010032B700120FFF73D
:4017400097FB214B1C78E4B22B7803F0EF032B700020FFF78DFB04F00804E4B22B7843F010032B700120FFF783FB2B7803F0EF032B7014B90A20FFF77BFB013E0CB1002E21
:40178000D4D10F4A137803F0BF031370137803F08003DBB213700232137803F0F00313700132137803F0F00343F00F0313700132137803F0F00343F00F03137070BD00BF6B
:4017C00020510040225100402151004010B50446FFF78AFF2009FFF765FF04F00F00FFF761FF10BD38B505460078012404E0FFF7EDFF285D0134E4B20028F8D138BD00BF0C
:4018000010B50446FFF770FF2009FFF731FF04F00F00FFF72DFF10BD08B52820FFF712FB0320FFF725FF0520FFF70CFB0320FFF71FFF0F20FFF706FB0320FFF719FF0120DD
:40184000FFF700FB0220FFF713FF0520FFF7FAFA0620FFF7D5FF0E20FFF7D2FF2C20FFF7CFFF0820FFF7CCFF0120FFF7C9FF0C20FFF7C6FF0320FFF7C3FF0520FFF7E2FAC8
:4018800008BD00BF08B50C20FFF7BAFF0122014B1A7008BDEA91FF1F08B5054B5B7823B9FFF7BAFF0122024B5A70FFF7EBFF08BDEA91FF1F10B5002404E02046FFF76EF942
:4018C0000134E4B2012CF8D9FF22014B1A7010BDE080FF1F10B50446FFF7ECFF2046FFF743F9014B1C7010BDE080FF1F38B59DF81040651EEDB2032D51D8013809282ED875
:40190000DFE800F0052D2D052D2D0F192D230F2B03D92548007840B222E02448007840B21EE00F2B03D92248007840B218E02148007840B214E00F2B03D91F48007840B267
:401940000EE01E48007840B20AE00F2B03D91C48007840B204E01B48007840B200E0002001EB401101FB02F2D20B91B20D2B0BD8C3F10E0192B20A4191B2621E124800EB68
:4019800082020133937005E0631E0F4A02EB83030F229A70013C0C4B23F8241038BD0020FFF74EFA38BD00BF180100491C010049190100491D0100491A0100491E010049B7
:4019C0001B0100491F010049EC91FF1FF8B5074600F012FD06460D4D2B7843F003032B700B4C237843F0030323700A4B1F700320FFF73EFA2B7803F0FC032B70237803F0B7
:401A0000FC032370304600F0FBFCF8BDF8460040F946004092580040F8B504460022BF4B1A74012859D13822BD4B1A70052702331F70072201331A70002501331D700133FA
:401A40001D701623B74A137002321570013215700132157001260A321670142102F5276211700132177001321370AF4B1D70442203331A70482201331A7001331E70023398
:401A80001E70112201331A70192201331A70972201331A705220FFF799FF5822A34B1A7001331D7005331F70022201331A7001331D7001331D70284600F0C4FACD229C4B67
:401AC0001A603146384600F0E1FA3146672000F061FB98491D20FFF7D5F9022C5DD138228F4B1A70042202331A70062201331A70002501331D7001331D703F2201331A70D5
:401B000002331D7001331D7001331D7001260A331E70502203F527631A70272201331A702C2201331A7001331D70552203331A705A2201331A70052701331F7002331E70FA
:401B4000112201331A70192201331A70972201331A704420FFF73AFF5822744B1A7001331D7005331F70022201331A7001331D7001331D70284600F065FA4FF47A426C4B4F
:401B80001A603146384600F081FA3146252000F001FB69491D20FFF775F9032C5DD138225F4B1A70042202331A70062201331A70002501331D7001331D703F2201331A70D4
:401BC00002331D7001331D7001331D7001260A331E70502203F527631A70272201331A702C2201331A7001331D70552203331A705A2201331A70052701331F7002331E703A
:401C0000112201331A70192201331A70972201331A704420FFF7DAFE5822444B1A7001331D7005331F70022201331A7001331D7001331D70284600F005FA4FF47A423C4BAF
:401C40001A603146384600F021FA3146252000F0A1FA3A491D20FFF715F9042C5DD138222F4B1A70042202331A70062201331A70002401331C7001331C703F2201331A7095
:401C800002331C7001331C7001331C7001250A331D70502203F527631A70272201331A702C2201331A7001331C70552203331A705A2201331A70052601331E7002331D7082
:401CC000112201331A70192201331A70972201331A704420FFF77AFE5822144B1A7001331C7005331E70022201331A7001331C7001331C70204600F0A5F94FF47A420C4B1C
:401D00001A602946304600F0C1F92946252000F041FA0B491D20FFF7B5F8F8BDEC91FF1F004E0040064E00408758004094580040D892FF1F15200000192000001D20000097
:401D4000212000002DE9F04182B0394D4FF0010885F80080374E00247474102000F084F9102000F005FA07211D20FFF79FF80427314B1F7001331C7007331C702F4A1378DF
:401D800043F0180313702E4B1C7003F2F5231C7001331C700A23A2F2872213700132147002321470122105321170132101321170043214701421A2F68C221170CDF80080CA
:401DC00047F6060248F66B510220FFF78FFD0223009310234FF4004249F2DA012046FFF785FD0323009310234FF4004249F2DA012046FFF77BFD009710234FF4004249F2B7
:401E0000DA012046FFF772FD2B78013B06EB83039A780C4B1A702B78013B36F823200A4B1A802878FFF7F8FD02B0BDE8F08100BFE180FF1FEC91FF1F96580040075B004078
:401E4000935800400E4E00400C4E004070B500F0D3FA06462A4B1B782A4B1A7842F001021A701A7842F010021A7010331A7842F001021A701A7842F010021A70224D2B789F
:401E800043F002032B70214C237843F0020323701F4A137843F0030313700320FEF7E8FF2B7803F0FD032B70237803F0FD032370184A137843F0060313707A22164B1A7048
:401EC000164A137843F0010313701032137843F0010313700F3A137843F0010313701032137843F0010313704FF000530C4A1360A2F5C0721360304600F082FA70BD00BF3C
:401F0000E180FF1FAA430040F8460040F9460040915800407758004082580040A143004080E200E008B5084B9B7C4BB9064BDB7C13F0FF0F01D1FFF705FF0122024B9A7412
:401F4000FFF784FF08BD00BFEC91FF1F024A137843F0010313707047004E0040024A137803F0FE0313707047004E0040094B1B7C13F0FF0F03D0074B5B7CDBB203E0064BA7
:401F80001B7803F00103012B01D00028EED01846704700BFEC91FF1F014E00400E4B1B7803F00303012B03D80C4B188880B209E00A4A12780A49087842EA0020032B01D1BB
:401FC000084B1B78084B1B7C13F0FF0F02D00022054B5A7400B27047144E0040104E0040114E0040124E0040EC91FF1F10B5084A137843F004031370FFF7A8FF0020FFF759
:40200000B5FFFFF7CBFF0446FFF7A8FF204610BD014E0040704700BF704700BF704700BF704700BF10B5002404E02046FEF7E0FD0134E4B2012CF8D9FF22014B1A7010BD19
:40204000E280FF1F10B50446FFF7ECFF2046FEF7C1FD014B1C7010BDE280FF1F014B188880B2704780400040034B1A7800F0F80010431870704700BF82400040024B1878E5
:4020800000F00700704700BF8240004070B505460E46FFF7F3FF0446FFF7E0FFA84256D02B4B1B7803F0010294B900B185B938B9284B1D80284A137803F0BF03137070BD38
:4020C000254A137843F040031370224B1D8070BD22B3002321490B7001240F310C7004310B700C390B7803F07F030B701A4B1B7813F0080F00D08DB9194B18800721013B08
:402100001970164B1B7813F0010FFAD110490B7803F0FE030B700021104B19700C4B1B7813F0010F0DD00E4B1D800EB1032200E001220A4B1A70094B1B7813F0010FFAD199
:4021400070BD044B1D8002490B7813430B7070BDA243004080400040824000400140004002400040014B188880B2704700410040034B1A7800F0F80010431870704700BFE1
:4021800002410040024B187800F00700704700BF0241004070B505460E46FFF7F3FF0446FFF7E0FFA84256D02B4B1B7803F0010294B900B185B938B9284B1D80284A1378BB
:4021C00003F0BF03137070BD254A137843F040031370224B1D8070BD22B3002321490B70012413310C7004390B7008390B7803F07F030B701A4B1B7813F0080F00D08DB9FA
:40220000194B18800721013B1970164B1B7813F0010FFAD110490B7803F0FE030B700021104B19700C4B1B7813F0010F0DD00E4B1D800EB1032200E001220A4B1A70094BA9
:402240001B7813F0010FFAD170BD044B1D8002490B7813430B7070BDA143004000410040024100400140004002400040024A137843F080031370704779650040014B188014
:40228000704700BF106A0040014B1880704700BF906A0040014B1880704700BF506A0040014B1880704700BF706A0040014B1870704700BF89650040014B1878704700BFC8
:4022C00069650040014B188880B27047B06A004008B501E0FFF7F6FFFFF7EEFF10F0100FF8D108BD10B5174A137803F0C00343F0090313701F32137843F001031370124C6B
:40230000237843F0010323704BF68030FFF7B6FF4BF68030FFF7B8FF4FF46160FFF7BAFF4FF46160FFF7BCFF0020FFF7BFFF00F063F8237843F01003237000F061F8FFF7C4
:40234000C7FF10BD796500409965004008B5054B1B7823B9FFF7C6FF0122024B1A70FFF785FF08BD0492FF1F024B1878C0F34010704700BFC1510040044A137803F0FE03D5
:4023800000F0010018431070704700BF00510040044A137803F0FD03400000F0020018431070704700510040044A137803F0DF03400100F020001843107070470051004007
:4023C000044A137803F0BF03800100F0400018431070704700510040024B1878C0F30010704700BFC15100400230800803D000BF01380046FCD17047EFF3108072B6704773
:4024000080F31088704700BF00F0F6B92DE9F04F8DB006460F4614461D4600F0B9FADFF81093CDE9000199F90080B8F1FF3F46D022462B462046294601F0DEFF834600283C
:402440003DD132463B463046394601F0D5FF8246002874D1304639460022002301F09AFF002833D0002200232046294601F092FF8346B8B1A94A012300200021CDF828A0C4
:40248000CDE90467CDE90645CDE9080103920293B8F1000F6CD0A24B0022104619460DB0BDE8F08F2046294601F03CFA38B1002200232046294601F077FF00286AD1DDE9E9
:4024C0000023104619460DB0BDE8F08FDDE9000101F028FA804600287DD0DDE900014FF0000A4FF0000B52465B4601F053FF0028E5D03046394601F015FA0028DFD0204629
:40250000294601F00FFA0028D9D099F90030834804210022022BCDE90467CDE90645CDE908AB039002910A9204D002A801F000FA002847D102F092FA2223036042E0002200
:4025400000232046294601F025FF0028B7D0744B724800220121B8F1020FCDF828B0CDE90467CDE90645CDE9082303900291A8D002A801F0DDF900287ED00A9B43B302F076
:402580006DFADDE908230A990160104619460DB0BDE8F08F614999F900300122CDF828B0CDE90467CDE9064503910292002B68D05C490020022BCDE9080166D102F04EFA2E
:4025C000212303600A9B1BB102F048FA0A9B0360DDE9082375E73046394601F0A3F900283FF47BAF2046294601F09CF900283FF474AFDDE900231046194601F0FDFE0028A8
:402600006FD1464B99F90080039303230A90CDE90467CDE906450293B8F1000F3BD1DFF814B14FF0604A0022002330463946CDE908AB01F0B9FE00283FF477AF00223A4BEE
:402640002046294601F03EFC04460D4601F078F902460B462046294601F09CFE00283DD1324B4FF06042CDE9082399F90080B8F1020F7FF45AAF5DE702F0F0F921230360DF
:402680007BE700230024CDE9083402A801F050F9002897D192E7DFF8A0B04FF0000A0022002330463946CDE908AB01F07DFE0028DDD000221C4B2046294601F003FC0446A6
:4026C0000D4601F03DF902460B462046294601F061FE18B9134B0022CDE9082399F90080C5E70E4A99F900900123CDF82880CDE90467CDE9064503920293B9F1000FC0D012
:40270000002200231046194601F006FDB9F1020FCDE908013FF452AFB7E700BF705500000000F03F0000F0FF0000E03FFFFFEFC7E380FF1FFFFFEF470000F07F2DE9F04F71
:402740008BB004460D4600F085FE284B064693F900A00F46BAF1FF3F12D022462B462046294601F049FE834650B94FF000084FF000092046294642464B4601F015FE20B9F1
:40278000304639460BB0BDE8F08F194A0123CDF820B0CDE90445CDE9024501920093BAF1000F15D042464B464046494601F0B4FCBAF1020FCDE906010CD102F04FF92123C5
:4027C0000360089B63B9DDE906010BB0BDE8F08FCDE90689684601F0ABF80028F1D1ECE702F03CF9089B0360EDE700BFE380FF1F74550000000000002DE9F84F5442144373
:4028000023F00049DFF880E149EAD474744506460D463ED84442044321F0004B4BEAD47474458A4635D803F1404404F58014144344D09C1704F0020444EAD17450EA0B0109
:402840002FD052EA090133D0F14546D0F3452FD0C9EB0B094FEA2959B9F13C0F34DC002B57DB3046294601F057FC01F057F800F0B7FE012C4AD0022C3BD084B132A3D3E954
:40288000002301F06BF932A3D3E9002301F066F905E01046194632462B4601F061F9BDE8F88F022C14D0032C0CD12D482D49F6E7BAF1000F2A480EDB2B49F0E7BDE8F84F70
:4028C00000F08EBE2946EAE723A1D1E90001D0E723482649E3E72649E1E7CB451FD0022CF6D0032CE1D0012C4FF0000020D00146D5E715A3D3E9002301F030F902460B46CF
:4029000013A1D1E9000101F029F9C8E701F10041C5E719F13C0FA4DA00200021A9E7022C0ED0032C09D0012C0D4804D01149B6E74FF00041B3E71049B1E710481049AEE731
:402940000E481049ABE700BF075C143326A6A13C182D4454FB210940182D4454FB21F93F182D4454FB2109C0FB21F93FFB210940FB21F9BFFB21E93FFB21E9BFD221337F95
:402980007CD902C07CD902400000F07F000000002DE9F04F23F0004858EA020993B03CD0714C21F00046A64283460D460CDD06F1404606F5801656EA0B0038D183466B49CE
:4029C000584613B0BDE8F08F9A4696462BD0A045EDDC654CA04578D0002D0F468146CDE9002376DB0024BEF1000F27D15E4B984500F08B805D4B984552D0BAF1804F00F030
:402A0000C9835B4B9A4519D1002D17DB4846394613B0BDE8F04F00F01DBDCB465846534913B0BDE8F08F0028C1D1B045D1DD514813B0BDE8F04F00F07DBF00244846394612
:402A400000F06CFFBBF1000F1CD0ED0F013D54EA050370D0484B984540F3948003F10473984540F30D84454B9E4270DDBAF1000F70DD3BA3D3E900231046194601F022FA8E
:402A800083469DE726B1394B25F040429A42DCD1BAF1000FC0F2B783002D08DB83468FE7BAF1000FC0F25E84CB46394688E706F1404606F5801656EA040300F08384012C93
:402AC000ECD101F1004183467AE7BEF1000F83D06DE72B4B98452CDCA3F15473984581DD4FEA2853A3F2FF33142B40F35384C3F134032EFA03F202FA03F39E457FF472AF31
:402B000002F00102C2F102046DE706F1404303F5801353EA0B0300F03A83184B9E4240F36783BAF1000F15DBDDE900349B46214646E7022457E74A4648463B46394601F0AA
:402B40000DF802460B4601F0E7FA834638E7BAF1000F8EDB4FF0000B594631E7AFF300809C7500883CE4377E0000F07F0000F03F0000E03F8C5300000000E041FFFFEF3F60
:402B8000FFFF3F43B6F5801F4FF0000205DAD04B01F098F90E466FF03402DFF844E33315C6F31306A3F2FF3346F07F57764503EB020A47F4401740F3C983C64B00229E42E1
:402BC00040F304840023CDE90823CDE90C23C24B0022CDE906230AF1010AA7F5801700263946DDE90623CDE90A0100F0B7FFDDE9062380468946DDE90A0100F0B1FF0246B2
:402C00000B460020B44901F087FA0A4601461346CDE90E1202464946404601F053F98C4683467B1043F0005303F5002399190020CDE904BC06460F464FF0000B6146584615
:402C400032463B46CDE910BCCDE9020101F03AF902460B464046494600F080FFDDE90623804689463046394600F078FF02460B46DDE90A0100F072FFDDE9022301F022F93D
:402C800002460B464046494600F068FFDDE90E2301F018F9DDE90478CDE906013A4643463846414601F00EF977A3D3E9002306460F4601F007F976A3D3E9002300F050FF4F
:402CC00032463B4601F0FEF873A3D3E9002300F047FF32463B4601F0F5F871A3D3E9002300F03EFF32463B4601F0ECF86EA3D3E9002300F035FF32463B4601F0E3F86CA31C
:402D0000D3E9002300F02CFF3246804689463B463046394601F0D6F802460B464046494601F0D0F8DDE9022306460F46DDE9040100F016FFDDE9062301F0C4F832463B46FF
:402D400000F00EFFDDE902678046894632463B463046394601F0B6F80022604BCDE90A0100F0FEFE42464B4600F0FAFEDDE910BC0F46DDE902015A463B46CDE90EBC5E4695
:402D800001F0A0F80022CDE90201544B3046394600F0E4FEDDE90A2300F0E0FE02460B464046494600F0DAFEDDE9042301F08AF8324680468946DDE906013B4601F082F8EC
:402DC00002460B464046494600F0CAFE8046894602460B46DDE9020100F0C2FEDDE90EBC35A3D3E900235846CDE906BC5E460F4601F068F8DDE90223CDE904013046394684
:402E000000F0ACFE02460B464046494600F0A6FE2BA3D3E9002301F055F82BA3D3E90023804689463046394601F04CF802460B464046494600F094FEDDE90C2300F090FEBC
:402E400080465046894600F0D7FF06460F46DDE9040142464B4600F083FEDDE9082300F07FFE32463B4600F07BFEDDE906BC324658463B46DA468B4600F070FEDDE908234C
:402E800030E000BFAFF30080EF4E454A287ECA3F65DBC9934A86CD3F01411DA96074D13F4D268F515555D53FFFAB6FDBB66DDB3F033333333333E33F000000E009C7EE3FFF
:402EC000FD033ADC09C7EE3FF5015B14E02F3EBE0000404379B60B000000F03F000008408E98030000F03AFEDDE9042300F036FE02460B464046494600F030FE8046894658
:402F0000DDE90012013C54EA050314BFD64CD74C0023CDE904340B461446CDE9023400230293DDE9024508462B461146224600F015FE52465B4600F0C5FFDDE9002306460E
:402F40000F464046494600F0BDFF02460B463046394600F005FE06460F4622462B4650465946CDE9006700F0ADFF0B460246804689463046394600F0F3FDBD4B0646994220
:402F80000D460C4640F30E8101F13F4303F5E003034340F0F081A0A3D3E90023DDE9000100F0DEFD424682468B464B463046294600F0D4FD02460B465046594601F012FA9D
:402FC000002840F0D8812F463B154FF48012A3F2FE3342FA03F32344C3F30A52A54EA2F2FF321641C3F3130B0020C2F1140523EA06014BF4801B02460B46002C4BFA05FB4E
:4030000040464946B8BFCBF1000B00F0A7FD02460B4680468946DDE9000100F0A1FD4FEA0B5A00247EA3D3E9002320460D4600F049FF424606460F464B462046294600F0F4
:403040008DFD02460B46DDE9000100F087FD76A3D3E9002300F036FF75A3D3E90023804689462046294600F02DFF02460B464046494600F075FD8046894602460B463046A4
:40308000394600F06DFD32463B4604460D4600F065FD02460B464046494600F05FFD2246804689462B462046294600F00BFF62A3D3E9002306460F4600F004FF60A3D3E9E1
:4030C000002300F04BFD32463B4600F0FBFE5EA3D3E9002300F044FD32463B4600F0F2FE5BA3D3E9002300F039FD32463B4600F0E9FE59A3D3E9002300F032FD32463B46E3
:4031000000F0E0FE02460B462046294600F026FD06460F4602460B462046294600F0D2FE0022CDE900014FF080433046394600F015FD02460B46DDE9000100F0EDFF4246DB
:4031400006460F464B462046294600F0BBFE42464B4600F005FD02460B463046394600F0FDFC22462B4600F0F9FC02460B4600203D4900F0F3FC8A44BAF5801FC0F23781BB
:403180005146DDE9042300F09DFE834618E4F346354915E44A4648463B46394600F092FE83460DE4344B21F000479F4240F30181324B0B4403430CD142464B4600F0CEFC04
:4031C00002460B46DDE9000101F0F8F800283FF4FBAE23A3D3E90023DDE9040100F072FE1FA3D3E9002300F06DFE8346FFF7E8BBBAF1000FBFF6AEACDDE900349B4604F1C3
:403200000041FFF7DDBB02460B460020164900F083FF41E4AFF30080FE822B654715973C00000000432EE63FEF39FAFE422EE63F396CA80C615C20BED0A4BE726937663E88
:40324000F16BD2C541BDBB3E2CDE25AF6A56113F93BDBE166CC1663F3E5555555555C53F59F3F8C21F6EA5010000F03F0000F0BFFFFF8F40FFFF0F00FFCB904000346F3F28
:403280006F4B9E427FF763AC6E4B9E423FF7EEAB00226C4B00F062FC5BA3D3E9002306460F4600F00FFE5AA3D3E90023804689463046394600F006FE002282468B46624B23
:4032C0003046394600F0FEFD02460B4652A1D1E9000100F043FC32463B4600F0F3FD02460B460020594900F039FC3246CDE902013B463046394600F0E5FD02460B46DDE947
:40330000020100F0DFFD46A3D3E9002300F0DAFD02460B465046594600F020FC02460B4606460F464046494600F01AFC42464B46002082468B4600F011FC02460B46304622
:40334000394600F00BFC80468946D9E500220023CDE90823CDE90C233A4B00220026CDE906233DE44A463B460020364900F0D4FE8346FFF725BB2CA3D3E90023DDE9040122
:4033800000F0A0FD28A3D3E9002300F09BFD8346FFF716BBBEF1000F7FF44FABC3F1140348FA03F202FA03F3984524D07446FFF721BB264B9F423FF707AEDDE902349A4629
:4033C0009B462EE602460B46FFF7B9BB204B4FF48026CDE9062316A3D3E90023CDE9082315A3D3E90023CDE90C23FFF7F9BB5A4600F036FBC5E602F00102C2F10204FFF7F3
:40340000F9BA00BFAFF30080000000604715F73F44DF5DF80BAE543E555555555555D53FFE822B654715F73F9C7500883CE4377E0000004003B8E23F06D0CF43EBFD4C3EAB
:40344000FEFFEF3F0000F03F0000D03F0000E03F0000F83F2DE9F0415F4E0C46B6460E407645054600F0988000290B46024674DD5FEA215E7FD0AEF2FF3EC3F313031EF00E
:40348000010F43F4801363D100273E4603EBD2710B444FEA6E0E520016204FF4001174189C424FEAD2754FEA420202DC1B1B66180F44013805EB43034FEA5101EFD1844672
:4034C00020244FF0004109E020D003EBD275013C4FEA51012B444FEA420220D09E4201EB0C05F1DA002D05EB010C09DBB0469542A3EB060300D9013B4646521B0844E4E717
:40350000BCF1000FF2DB06F10108F0E7954217D8002D05EB010C49DB98460023ECE7134310D140087B1003F17F5303F50013FA0703EB0E57394648BF40F00040BDE8F08108
:403540003346C2E7411C35D000F001031844E8E75B0003EBD273520096E721F000460643ECD079BB8E46D30AAEF1150E5205002BF9D0DD0221D4002100E001465B00DC02A8
:4035800001F10100F9D5C0F1200422FA04F42343C1EB0E0E82406EE702460B4600F092FC2A46234600F0DCFABDE8F081BCF1000FA9DAB1E701372046B4E720244FF0FF318D
:4035C0000020E2E702460B4600F0C8FA02460B4600F0A2FDB2E700BF0000F07F000000002DE9F84FC04B21F000469E420D468A4604460FDDBD4B9E4200F3B28000F0AD8086
:40360000BB4BBC49BC4CBAF1000FC8BF19462046BDE8F88FB94B9E4200F3BC80A3F1DE739E4240F3A7804FF0FF3B22462B462046294600F047FC02460B468046894600F09B
:4036400041FC91A3D3E9002306460F4600F03AFC8FA3D3E9002300F083FA32463B4600F031FC8DA3D3E9002300F07AFA32463B4600F028FC8AA3D3E9002300F071FA324640
:403680003B4600F01FFC88A3D3E9002300F068FA32463B4600F016FC85A3D3E9002300F05FFA42464B4600F00DFC83A3D3E90023804689463046394600F004FC80A3D3E967
:4036C000002300F04BFA32463B4600F0FBFB7EA3D3E9002300F042FA32463B4600F0F2FB7BA3D3E9002300F039FA32463B4600F0E9FB79A3D3E9002300F030FA32463B4696
:4037000000F0E0FBBBF1FF3F02460B4669D04046494600F025FA22462B4600F0D3FB784E784B4FEACB0B5E449B44DBE9002300F015FA22462B4600F011FA02460B46D6E91C
:40374000000100F00BFABAF1000F0446BFF65FAF01F100412046BDE8F88F00283FF450AF224620462B46294600F0FAF904462046BDE8F88F5AA3D3E9002300F0F1F9002228
:40378000614B00F02FFE00283FF44DAF29462046BDE8F88F00F0C2F85C4B04469E420D462FDCA3F550239E4254DC02460B4600F0D7F90022544B00F0D1F9002206460F465D
:4037C0004FF080432046294600F0CAF902460B463046394600F0A0FC4FF0000B04460D4623E74046494600F0BBF922462B4600F069FB02460B462046294600F0AFF90446FE
:4038000005E7434B9E421ADC0022424B00F0A6F9002206460F463F4B2046294600F052FB0022394B00F09CF902460B463046394600F072FC4FF0020B04460D46F5E6024678
:403840000B460020344900F067FC4FF0030B04460D46EAE600222C4B00F080F9002206460F46294B2046294600F07AF902460B463046394600F050FC4FF0010B04460D462A
:40388000D3E600BFAFF3008011DA22E33AAD903FEB0D76244B7BA93F513DD0A0660DB13F6E204CC5CD45B73FFF8300922449C23F0D5555555555D53F2F6C6A2C44B4A2BFAA
:4038C0009AFDDE522DDEAD3F6D9A74AFF2B0B33F711623FEC671BC3FC4EB98999999C93F9C7500883CE4377EFFFF0F440000F07FFB21F93FFB21F9BF182D4454FFFFDB3F0D
:40390000A0550000805500000000F03FFFFFF23FFF7F03400000F83F0000F0BF21F00041704700BF41F0004101F58010C00F70470020704700200149704700BF0000F87F44
:40394000F0B5C1F30A5EAEF2FF36132E83B002460B460C464FEAD17507462EDC002E49DB3D49314103EA010010432BD049080B4053EA02070CD04FF48023132E24EA010101
:4039800043FA06F444EA01040CBF4FF000470027324B214603EBC505D5E90045384622462B4600F0DDF8CDE90001DDE9000122462B4600F0D3F803B0F0BD332E06DDB6F509
:4039C000806F45D01046194603B0F0BDAEF2134E4FF0FF3121FA0EF10842F3D049080842D6D04FF0804320EA010143FA0EFE4EEA0107CDE721F0004101431946E4D0C3F32C
:403A0000130343EA000CCCF1000343EA0C0C134B640C4FEA1C3C0CF4002C03EBC5036404D3E900674CEA040132463B4600F098F8CDE90001DDE9000132463B4600F08EF8C5
:403A4000024621F0004141EAC57310461946BBE700F086F8B8E700BFFFFF0F00C0550000F8B5C1F30A5604460D460B46174606BB21F00043034325D000222F4B00F022FA00
:403A80002E4A044697420D460B462ADBC1F30A56363E40F2FE723E44964228DC002E12DD23F0FF4323F4E00343EA065520462946F8BD40F2FF729642EBD102460B4600F0FC
:403AC0004FF8F8BDF8BD16F1350F1DDA4CF250339F420CDC14A1D1E9000122462B4600F031F811A3D3E9002300F0ECF9F8BD22460FA1D1E900012B4600F024F80CA3D3E90F
:403B0000002300F0DFF9F8BD23F0FF4323F4E003363643EA0655204629460022084B00F0D1F9F8BDAFF3008059F3F8C21F6EA5019C7500883CE4377E00005043B03CFFFFA3
:403B40000000903C03F0004321F0004242EA0301704700BF81F0004102E000BF83F0004330B54FEA41044FEA430594EA050F08BF90EA020F1FBF54EA000C55EA020C7FEA9B
:403B8000645C7FEA655C00F0E2804FEA5454D4EB5555B8BF6D420CDD2C4480EA020281EA030382EA000083EA010180EA020281EA0303362D88BF30BD11F0004F4FEA013115
:403BC0004FF4801C4CEA113102D0404261EB410113F0004F4FEA03334CEA133302D0524263EB430394EA050F00F0A780A4F10104D5F1200E0DDB02FA0EFC22FA05F2801885
:403C000041F1000103FA0EF2801843FA05F359410EE0A5F120050EF1200E012A03FA0EFC28BF4CF0020C43FA05F3C01851EBE37101F0004507D54FF0000EDCF1000C7EEB76
:403C400000006EEB0101B1F5801F1BD3B1F5001F0CD349085FEA30004FEA3C0C04F101044FEA445212F5800F80F09A80BCF1004F08BF5FEA500C50F1000041EB045141EA89
:403C8000050130BD5FEA4C0C404141EB010111F4801FA4F10104E9D191F0000F04BF01460020B1FA81F308BF2033A3F10B03B3F120020CDA0C3208DD02F1140CC2F10C0291
:403CC00001FA0CF021FA02F10CE002F11402D8BFC2F1200C01FA02F120FA0CFCDCBF41EA0C019040E41AA2BF01EB0451294330BD6FEA04041F3C1CDA0C340EDC04F11404BF
:403D0000C4F1200220FA04F001FA02F340EA030021FA04F345EA030130BDC4F10C04C4F1200220FA02F001FA04F340EA0300294630BD21FA04F0294630BD94F0000F83F4B7
:403D4000801306BF81F480110134013D4EE77FEA645C18BF7FEA655C29D094EA050F08BF90EA020F05D054EA000C04BF1946104630BD91EA030F1EBF0021002030BD5FEAD1
:403D8000545C05D14000494128BF41F0004130BD14F580043CBF01F5801130BD01F0004545F0FE4141F470014FF0000030BD7FEA645C1ABF194610467FEA655C1CBF0B46E8
:403DC000024650EA013406BF52EA033591EA030F41F4002130BD00BF90F0000F04BF0021704730B54FF4806404F132044FF000054FF0000150E700BF90F0000F04BF0021F6
:403E0000704730B54FF4806404F1320410F0004548BF40424FF000013EE700BF42004FEAE2014FEA31014FEA02701FBF12F07F4393F07F4F81F06051704792F0000F14BFFE
:403E400093F07F4F704730B54FF4607401F0004521F0004120E700BF50EA010208BF704730B54FF000050AE050EA010208BF704730B511F0004502D5404261EB41014FF412
:403E8000806404F132045FEA915C3FF4DCAE4FF003025FEADC0C18BF03325FEADC0C18BF033202EBDC02C2F1200300FA03FC20FA02F001FA03FE40EA0E0021FA02F1144402
:403EC000C1E600BF70B54FF0FF0C4CF4E06C1CEA11541DBF1CEA135594EA0C0F95EA0C0F00F0DEF82C4481EA030621EA4C5123EA4C5350EA013518BF52EA033541F48011FA
:403F000043F4801338D0A0FB02CE4FF00005E1FB02E506F00042E0FB03E54FF00006E1FB03569CF0000F18BF4EF0010EA4F1FF04B6F5007F64F5407404D25FEA4E0E6D4111
:403F400046EB060642EAC62141EA55514FEAC52040EA5E504FEACE2EB4F1FD0C88BFBCF5E06F1ED8BEF1004F08BF5FEA500E50F1000041EB045170BD06F0004646EA010141
:403F800040EA020081EA0301B4EB5C04C2BFD4EB0C0541EA045170BD41F480114FF0000E013C00F3AB8014F1360FDEBF002001F0004170BDC4F10004203C35DA0C341BDC3A
:403FC00004F11404C4F1200500FA05F320FA04F001FA05F240EA020001F0004221F0004110EBD37021FA04F642EB06015EEA430E08BF20EAD37070BDC4F10C04C4F1200537
:4040000000FA04F320FA05F001FA04F240EA020001F0004110EBD37041F100015EEA430E08BF20EAD37070BDC4F1200500FA05F24EEA020E20FA04F301FA05F243EA02039E
:4040400021FA04F001F0004121FA04F220EA020000EBD3705EEA430E08BF20EAD37070BD94F0000F0FD101F00046400041EB010111F4801F08BF013CF7D041EA060195F09C
:40408000000F18BF704703F00046520043EB030313F4801F08BF013DF7D043EA0603704794EA0C0F0CEA135518BF95EA0C0F0CD050EA410618BF52EA4306D1D181EA030113
:4040C00001F000414FF0000070BD50EA410606BF1046194652EA430619D094EA0C0F02D150EA013613D195EA0C0F05D152EA03361CBF104619460AD181EA030101F0004107
:4041000041F0FE4141F470014FF0000070BD41F0FE4141F4780170BD70B54FF0FF0C4CF4E06C1CEA11541DBF1CEA135594EA0C0F95EA0C0F00F0A7F8A4EB050481EA030E2C
:4041400052EA03354FEA013100F088804FEA03334FF0805545EA131343EA12634FEA022245EA111545EA10654FEA00260EF000419D4208BF964244F1FD0404F5407402D2C5
:404180005B084FEA3202B61A65EB03055B084FEA32024FF480104FF4002CB6EB020E75EB030E22BFB61A754640EA0C005B084FEA3202B6EB020E75EB030E22BFB61A7546D3
:4041C00040EA5C005B084FEA3202B6EB020E75EB030E22BFB61A754640EA9C005B084FEA3202B6EB020E75EB030E22BFB61A754640EADC0055EA060E18D04FEA051545EAF4
:4042000016754FEA06164FEAC30343EA52734FEAC2025FEA1C1CC0D111F4801F0BD141EA00014FF000004FF0004CB6E711F4801F04BF01430020B4F1FD0C88BFBCF5E06FCB
:404240003FF6AFAEB5EB030C04BFB6EB020C5FEA500C50F1000041EB045170BD0EF0004E4EEA113114EB5C04C2BFD4EB0C0541EA045170BD41F480114FF0000E013C90E60E
:4042800045EA060E8DE60CEA135594EA0C0F08BF95EA0C0F3FF43BAF94EA0C0F0AD150EA01347FF434AF95EA0C0F7FF425AF104619462CE795EA0C0F06D152EA03353FF4D9
:4042C000FDAE1046194622E750EA410618BF52EA43067FF4C5AE50EA41047FF40DAF52EA43057FF4EBAE12E74FF0FF3C06E000BF4FF0010C02E000BF4FF0010C4DF804CDED
:404300004FEA410C7FEA6C5C4FEA430C18BF7FEA6C5C1BD001B050EA410C0CBF52EA430C91EA030F02BF90EA020F0020704710F1000F91EA030F58BF994208BF90422CBFFA
:40434000D8176FEAE37040F0010070474FEA410C7FEA6C5C02D150EA013C07D14FEA430C7FEA6C5CD6D152EA033CD3D05DF8040B704700BF8446104662468C4619466346E7
:4043800000E000BF01B5FFF7B7FF002848BF10F1000F01BD4DF808EDFFF7F4FF0CBF012000205DF808FB00BF4DF808EDFFF7EAFF34BF012000205DF808FB00BF4DF808ED1B
:4043C000FFF7E0FF94BF012000205DF808FB00BF4DF808EDFFF7CEFF94BF012000205DF808FB00BF4DF808EDFFF7C4FF34BF012000205DF808FB00BF4FEA410C7FEA6C5CA0
:4044000002D150EA013C0AD14FEA430C7FEA6C5C02D152EA033C02D14FF0000070474FF0010070474FEA410212F5001215D211D56FF47873B3EB625212D94FEAC12343F053
:40444000004343EA505311F0004F23FA02F018BF404270474FF00000704750EA013005D111F0004008BF6FF0004070474FF00000704700BF4A0011D212F5001211D20DD565
:404480006FF47873B3EB62520ED44FEAC12343F0004343EA505323FA02F070474FF00000704750EA013002D14FF0FF3070474FF0000070474FEA4102B2F1E04324BFB3F535
:4044C000001CDCF1FE5C0DD901F0004C4FEAC0024CEA5070B2F1004F40EB830008BF20F00100704711F0804F21D113F13872BCBF01F00040704741F480114FEA5252C2F10D
:404500001802C2F1200C10FA0CF320FA02F018BF40F001004FEAC1234FEAD32303FA0CFC40EA0C0023FA02F34FEA4303CCE77FEA625307D150EA01331EBF4FF0FE4040F4A8
:404540004000704701F0004040F0FE4040F40000704700BF80F0004002E000BF81F0004142001FBF5FEA410392EA030F7FEA226C7FEA236C6AD04FEA1262D2EB1363C1BF34
:40458000D218414048404140B8BF5B42192B88BF704710F0004F40F4000020F07F4018BF404211F0004F41F4000121F07F4118BF494292EA030F3FD0A2F1010241FA03FC60
:4045C00010EB0C00C3F1200301FA03F100F0004302D5494260EB4000B0F5000F13D3B0F1807F06D340084FEA310102F10102FE2A51D2B1F1004F40EBC25008BF20F00100C1
:4046000040EA03007047490040EB000010F4000FA2F10102EDD1B0FA80FCACF1080CB2EB0C0200FA0CF0AABF00EBC25052421843BCBFD0401843704792F0000F81F400014A
:4046400006BF80F400000132013BB5E74FEA41037FEA226C18BF7FEA236C21D092EA030F04D092F0000F08BF0846704790EA010F1CBF0020704712F07F4F04D1400028BFFB
:4046800040F00040704712F100723CBF00F50000704700F0004343F0FE4040F4000070477FEA226216BF08467FEA23630146420206BF5FEA412390EA010F40F48000704737
:4046C0004FF0000304E000BF10F0004348BF40425FEA000C08BF704743F0964301464FF000001CE050EA010208BF70474FF000030AE000BF50EA010208BF704711F0004303
:4047000002D5404261EB41015FEA010C02BF84460146002043F0B64308BFA3F18053A3F50003BCFA8CF2083AA3EBC25310DB01FA02FC634400FA02FCC2F12002BCF1004FE8
:4047400020FA02F243EB020008BF20F00100704702F1200201FA02FCC2F1200250EA4C0021FA02F243EB020008BF20EADC7070474FF0FF0C1CEAD0521EBF1CEAD15392EAFB
:404780000C0F93EA0C0F6FD01A4480EA010C400218BF5FEA41211ED04FF0006343EA501043EA5111A0FB01310CF00040B1F5000F3EBF490041EAD3715B0040EA010062F176
:4047C0007F02FD2A1DD8B3F1004F40EBC25008BF20F00100704790F0000F0CF0004C08BF49024CEA502040EA51207F3AC2BFD2F1FF0340EAC250704740F400004FF00003CB
:40480000013A5DDC12F1190FDCBF00F000407047C2F10002410021FA02F1C2F1200200FA02FC5FEA310040F1000053EA4C0308BF20EADC70704792F0000F00F0004C02BFED
:40484000400010F4000F013AF9D040EA0C0093F0000F01F0004C02BF490011F4000F013BF9D041EA0C018FE70CEAD15392EA0C0F18BF93EA0C0F0AD030F0004C18BF31F0AD
:40488000004CD8D180EA010000F00040704790F0000F17BF90F0004F084691F0000F91F0004F14D092EA0C0F01D142020FD193EA0C0F03D14B0218BF084608D180EA01003C
:4048C00000F0004040F0FE4040F40000704740F0FE4040F4400070474FF0FF0C1CEAD0521EBF1CEAD15392EA0C0F93EA0C0F69D0A2EB030280EA010C49024FEA402037D0C1
:404900004FF0805343EA111143EA10130CF000408B4238BF5B0042F17D024FF4000C8B4224BF5B1A40EA0C00B3EB510F24BFA3EB510340EA5C00B3EB910F24BFA3EB910383
:4049400040EA9C00B3EBD10F24BFA3EBD10340EADC001B0118BF5FEA1C1CE0D1FD2A3FF650AF8B4240EBC25008BF20F0010070470CF0004C4CEA50207F32C2BFD2F1FF03AA
:4049800040EAC250704740F400004FF00003013A37E792F0000F00F0004C02BF400010F4000F013AF9D040EA0C0093F0000F01F0004C02BF490011F4000F013BF9D041EAFD
:4049C0000C0195E70CEAD15392EA0C0F08D142027FF47DAF93EA0C0F7FF470AF084676E793EA0C0F04D14B023FF44CAF08466EE730F0004C18BF31F0004CCAD130F00042B4
:404A00007FF45CAF31F000437FF43CAF5FE700BF4FEA4002B2F1FE4F0FD34FF09E03B3EB12620DD94FEA002343F0004310F0004F23FA02F018BF404270474FF000007047D6
:404A400012F1610F01D1420205D110F0004008BF6FF0004070474FF000007047014B1868704700BF4481FF1F0E4B70B51E460E4C0025E41AA410A54204D056F8253098470F
:404A80000135F8E700F0C0FD084B094C1E46E41AA4100025A54204D056F8253098470135F8E770BD1456000014560000145600001C56000010B5431E0A44914204D011F8FE
:404AC000014B03F8014FF8E710BD03460244934202D003F8011BFAE7704700000EB400B54FF402719CB0ADF814106FF00041049107914FF6FF711DAB02900690084853F83F
:404B0000042BADF81610006802A9019300F064F8029B00221A701CB05DF804EB03B070474481FF1F2DE9F0478E6882469E420C46914698463ED88A8912F4906F3AD025682B
:404B4000096902236F1A656905EB450595FBF3F57B1C43449D4238BF1D4653050FD5294600F040FB064698B13A462169FFF7A2FFA38923F4906343F08003A38113E02A46BF
:404B800000F08EFB064670B92169504600F0DEFA0C23CAF80030A3894FF0FF3043F04003A381BDE8F08726613E44266046466561ED1BA560464528BF464649463246206833
:404BC00000F0A8FAA36800209B1BA36023681E442660BDE8F08700002DE9F04F9DB003938B8980461C060D4616460DD50B695BB9402100F0F7FA2860286118B90C23C8F850
:404C00000030CDE040236B610023099320238DF82930DFF89CB130238DF82A3037463C4614F8013B1BB9B7EB060910D003E0252BF9D02746F3E74B46324629464046FFF74F
:404C400071FF013000F0A780099B4B4409933B78002B00F0A08000234FF0FF3204930793059206938DF853301A930126052221784E4800F041FA671C049B38B14B4A3C464C
:404C8000801A06FA00F018430490EFE7D90644BF20228DF853201A0744BF2B228DF8532022782A2A03D0079A00210A200BE0039A111D12680391002A10DA524243F00200D2
:404CC000079204900BE027463B780134303B092B03D800FB02320121F5E701B107923B782E2B1ED17B782A2B0AD1039B02371A1D1B680392002BB8BF4FF0FF33059310E076
:404D0000002319460593781C0A2407463A780130303A092A03D804FB01210123F5E703B1059103223978224800F0E6F940B14023CBEB000003FA00F0049B013718430490B8
:404D4000397806221B487E1C8DF8281000F0D4F988B1194B33B9039B073323F007030833039314E003AB00932A46144B04A94046AFF3008007E003AB00932A460F4B04A99C
:404D8000404600F093F8B0F1FF3F824603D0099B5344099342E7AB895B0601D4099801E04FF0FF301DB0BDE8F08F00BFD2550000D8550000DC55000000000000254B000079
:404DC0002DE9F04791461F460A698B6806469342B8BF1346C9F8003091F843200C46DDF8208012B10133C9F800302368990642BFD9F800300233C9F80030256815F0060558
:404E000010D104F1190A07E00123524639463046C04701301AD00135E368D9F800209B1A9D42F1DB94F843302268003318BF012392060FD5E118302081F843005A1C94F8B3
:404E400045102244023382F8431003E04FF0FF30BDE8F08704F1430239463046C0470130F4D02268D9F80050E36802F00602042A08BF5D1B2269A3680CBF25EAE575002591
:404E80009342C4BF9B1AED184FF000091A344D4509D00123224639463046C0470130D5D009F10109F3E70020BDE8F0872DE9F04317460A7E85B06E2A984606460C460C9B49
:404EC00001F1430E00F0AE8011D8632A22D009D8002A00F0BB80582A40F0CA8081F84520834955E0642A1ED0692A1CD0C0E0732A00F0B08009D86F2A2ED0702A40F0B88006
:404F00000A6842F020020A603EE0752A24D0782A3AD0ADE01A6801F14205111D1960136884F84230A8E021681A6811F0800F02D0111D196008E011F0400F02F10401196047
:404F400002D0B2F9003000E01368002B3CDA2D225B4284F8432037E021681A6811F0800F02D0111D196007E011F0400F02F10401196001D0138800E01368227E5C496F2AA5
:404F800014BF0A2208221BE078225A4984F845202268186812F0800F00F104051D6003D1550601D5038800E00368D00744BF42F0200222601BB9226822F0200222601022CC
:404FC000002084F8430001E049490A226568002DA56008DB206820F0040020602BB9002D7DD175460CE0002B79D07546B3FBF2F002FB1033CB5C05F8013D03460028F5D197
:40500000082A0BD12368DA0708D5236962689A42DEBF302305F8013C05F1FF35C5EB0E0323612EE008681A6810F0800F496903D0101D1860136808E010F0400F02F10400EC
:405040001860136801D0198000E0196000232361754616E01A68111D1960156800216268284600F049F808B1401B6060636804E004F1420584F8422001232361002384F80E
:405080004330CDF800803B4603AA21463046FFF797FE013002D14FF0FF3026E023692A4639463046C0470130F5D023689B0710D5002504F1190907E001234A46394630465E
:4050C000C0470130E7D00135E368039A9B1A9D42F2DBE068039B9842B8BF184605E00B7804F1420584F842308AE705B0BDE8F083E3550000F455000010B5C9B20244904204
:40510000034605D01C7801308C42F8D1184610BD002010BD884210B501EB020301D8421E0BE09842FBD28118D21AD34204D013F8014D01F8014DF8E710BD994204D011F820
:40514000014B02F8014FF8E710BD000038B50546002944D051F8043C0C1F002BB8BFE41800F0D4F81E4A1368114613B96360146030E0A3420DD92268A018834201BF18680B
:405180005B681218226063600C6023E0A24203D813465A68002AF9D118681918A1420BD12168014458188242196013D110685268014419605A600DE002D90C232B6009E09C
:4051C00021686018824201BF106852680918216062605C602846BDE8384000F098B838BD0C92FF1F70B5CD1C25F0030508350C2D38BF0C25002D064601DBA94202D90C2349
:40520000336046E000F082F8234B1C681A462146A1B10B685B1B0ED40B2B03D90B60CC18CD501EE08C420BBF63684B681360636018BF0C4615E00C464968E9E7174C2368CE
:405240001BB9304600F052F820602946304600F04DF8431C18D0C41C24F00304A0420DD12560304600F053F804F10B00231D20F00700C31A0ED05A42E25070BD211A30461A
:4052800000F034F80130EBD10C233360304600F03EF8002070BD00BF0C92FF1F0892FF1FF8B5074615460E4621B91146BDE8F840FFF798BF1AB9FFF749FF2846F8BD00F0DF
:4052C00027F885420ED929463846FFF78BFF044650B131462A46FFF7EDFB31463846FFF735FF01E03046F8BD2046F8BD38B5064C0023054608462360FBF730FD431C02D14F
:40530000236803B12B6038BDDC92FF1F7047704751F8040C0028BEBF091851F8043CC018043870470000000044657061727400005375636365737300596F206D65632021AA
:405340000000000054696D657220616E642049535220537461727465640A0000456E7465726564204D50553630353020496E697469616C697A6174696F6E2E2E2E200A008A
:4053800049324320537461727465640A00000000426567696E6E696720496E697469616C697A6174696F6E206F66204D50552E2E2E200A0057726974696E6720746F205011
:4053C0006F776572204D616E6167656D656E742052656769737465722E2E2E200A000000436F6E66696775726174696F6E3A2057726974696E6720746F20616363656C65A4
:40540000726F6D657465722072656769737465722E2E2E200A0000000A520000446F6E652E0A0000436F6E66696775726174696F6E3A2057726974696E6720746F20677982
:40544000726F73636F70652072656769737465722E2E2E200A0000004D50553630353020496E697469616C697A65642E200A000043414C4942524154494F4E20444F4E45DF
:40548000210A000041783A3A2000000041793A3A20000000417A3A3A2000000047783A3A2000000047793A3A20000000477A3A3A20000000543A3A200000000043414C49DA
:4054C000423A3A47783A3A2000000000524F4C4C3A3A2025642E25303264202028616E676C6529200000000050495443483A3A2025642E25303264202028616E676C652936
:405500002000000025642F25640000002D510040005B00401D510040005B004080080404035B00402443004040000000C84900401900004F00401800305100404000000041
:405540000140001000140140800000150140000700400140000A004C01400002005001402000000080140140EC04004880000000706F770073717274000000000000000030
:40558000E2652F227F2B7A3C075C143326A6813CBDCBF07A8807703C075C143326A6913C4FBB610567ACDD3F182D4454FB21E93F9BF681D20B73EF3F182D4454FB21F93FCF
:4055C000000000000000304300000000000030C34300232D302B2000686C4C00656667454647003031323334353637383941424344454600303132333435363738396162A1
:405600006364656600000000F8B500BFF8BC08BC9E4670474D000000D90D0000F8B500BFF8BC08BC9E4670472900000040560000C880FF1F80000000981100000000000059
:4056400000000000E092FF1F0000E02EC05D00001800000000366E01FF01FF010000000000000000000000000000000000000000000000000000000000000000D05500008D
:40568000000000000000000000000000000000000000000000000000000000000000000000000000000000000000000000000000000000000000000000000000E480FF1F68
:4056C00000000000000000000000000000000000000000000000000000000000000000000000000000000000000000000000000000000000000000000000000000000000AA
:405700000000000000000000000000000000000000000000000000000000000000000000000000000000000000000000000000000000000000000000000000000000000069
:405740000000000000000000000000000000000000000000000000000000000000000000000000000000000000000000000000000000000000000000000000000000000029
:4057800000000000000000000000000000000000000000000000000000000000000000000000000000000000000000000000000000000000000000000000000000000000E9
:020000040003F7
:0200000480007A
:40000000044F0040045200400164004003650040020101400103014002050140500601402B070140010B0140010F0140041401404C150140551601404C1701404A180140E3
:4000400025190140051B0140044201400543014003440140034601400B480140134901400E4C01400A4D0140055001400151014001800A270D1016270910600279087C0469
:40008000870F85728638890F8380E0019F809F80E0020266041808600C190E6210211280141916641A011C40207F240828672A182C10321F348036603A0858045C035F0127
:4000C00084148573870C8A038B088C10901C922294309573960C9704980999039A109B049C409D809F15A220A620A82CAA11AD2AAF44B020B240B30FB41FB5C0B730B9A296
:40010000BB08BE05BF41C065C103C5ECC6B0C80BC9FFCAFFCBFFCEF0CF44D00CD401D804D904DA04DB04DC33DD33DF01E6C0EA40EB020080012002100460064007200801BA
:400140000B160D800EA410B415021601171419241A401E262154239428012B0130A43108320439284108482049014B925210581059055A409F80C0F7C2FFC4FECA08CC0E63
:40018000CE06D002D20CD60FE002E0013B0259045C305F010510064107100C400E220F08150217241C101E0A21012202234024042504268827402C082E0A2F013504369037
:4001C00037013C023D043F60400C4440460847504E084F4856025E086C086D046F017420760177248A488C128D108F01950699149B109C0A9E419F20A001A210A310A428A8
:40020000A504A602A901AB10AC0AAD04AE48AF01B620C0F0C2E0C470CAF0CCF0CEF0D0B0D230D640E008E401E620EA1101100204040406180706080109060A020C180D1E48
:400240000E04101C111E1418151816041706180819181C021D021E012003210424032508281829012C102D062F18331E341C350136033A203B083F105418580459045B0498
:400280005C335D305F01820884E08C1C8E0390209240944096A09A1C9C809E40A203A401A60EA8E0AC01AE16B00FB2E0B41ABA22C001C540C9FFCA07CBFFCC40CD20CEF08D
:4002C000CF05D008D804DA04DC03DD03DF01E040E1A8E240E32001040280030204400648071009810A100B040C200D810E20108A1308150416031721182019041A181B0397
:400300001C021D901F80262027102C202D202E402F803404364237203C403D083E12414048404A80508053405A085B085E02640A78047A10806081108240831491889304BF
:40034000946095029608978099209E419F34A211A4C0A580A640A701AF80C0FDC2FFC4FFCAF0CCF0CEF0D008D680D830E2200F01270135014050410249FF4AFF4BFF4DA023
:400380004F04501859045A045C205D025F01604062C06440654066C068C06AC06CC06EC0820287029108920198049B049F09A202A302A604B002B101B204B302B504B60161
:4003C000B708BF04C010C106C5D5C601C702C817C9FFCAFFCBFFCDAFCE0FCF04D018D280D407D804D904DA04DB04DC22DD22DF01E040E2C0E440E540E6C0E8C0EAC0ECC03D
:40040000EEC0000109200A4010A018011A101B422122224424082B402C2030A031023A043F8040014604482849014F805088520459015A9872408B02C008C20AC40CCA4182
:40044000CC0DCE12D028D214D60FE220B404E008E401E620EA013E108701CE20E0406840744096109F01DC607C018001DE0145088508D001030827015A808A0196109F0160
:40048000AC40C040C820D480EA401220164070087E018220864088089202AA10AB08AF08B640C430DC80DE20E010E480EA80ECC0132414805B0862207B107F4088808B0878
:4004C000C40ED602D802DE03E204E401831087408B0493049780A710AB20B620E604E80800080A08100C1A081C0403C0000004020508180019000402101000000008000056
:400500001D00000400000210000002011D0000010810000018080000000000100006020801011C10008000000000141126050400010C00E021FFFFFF62A0F0410C000000C3
:40054000000002120404040433330001000000000000400200103010001010120000000000000000000000000000000000636300000000000300300003000300000000002D
:40058000080004080800080020000000003B3B0030000400007F7F00000080006700180100000000000000000000000000000000000000000000000000000000000000004F
:4005C00000000000000000000000000000000000000000000000000000000000000000000000000000000000000000000000000000000000000000000000000000000000FB
:4006000000000000000000000000000000000000000000000000000000000000000000000000000000000000000000000000000000000000000000000000000000000000BA
:40064000000000000000000000000000000000000000000000000000000000000000000000000000000000000000000000000000000000000000000000000000000000007A
:40068000000000000000000000000000000000000000000000000000000000000000000000000000000000000000000000000000000000000000000000000000000000003A
:0200000490006A
:0400000000004005B7
:0200000490105A
:04000000BC90ACAF55
:0200000490303A
:02000000314885
:0200000490402A
:4000000000000000000000000000000000000000000000000000000000000000000000000000000000000000000000000000000000000000000000000000000000000000C0
:400040000000000000000000000000000000000000000000000000000000000000000000000000000000000000000000000000000000000000000000000000000000000080
:400080000000000000000000000000000000000000000000000000000000000000000000000000000000000000000000000000000000000000000000000000000000000040
:4000C0000000000000000000000000000000000000000000000000000000000000000000000000000000000000000000000000000000000000000000000000000000000000
:0200000490501A
:0C00000000012E16106900012E3941B1DC
:00000001FF